:060000000A128A1110280B
:10000800FE00030EF3000408F4000A08F5007F0858
:10001800F6000A128A1120280A128A111328F701F9
:10002800F80183120313A801A901AA01AB01AC01CD
:1000380083010A128A11F6290B1C23282428512827
:100048000B108312031306182A282B283C2801308A
:10005800F000700887070330F2008A30F10055304D
:10006800F000F00B3528F10B3528F20B35283C2829
:100078008312031386184128422851280130870229
:100088000330F2008A30F1005530F000F00B4A28B6
:10009800F10B4A28F20B4A2851280B1D54285528E1
:1000A800872877087804031D5A285B286D2883124F
:1000B8000313091489102908013E84000A128A11C1
:1000C80091220A128A1188000130F7000030F800E6
:1000D800822877037804031D7228732882288312E4
:1000E8000313091089142808013E84000A128A1192
:1000F80091220A128A118800F701F8010B11B23017
:100108008312031381007608FF0075088A007408BB
:100118008400730E8300FE0E7E0E09008312031303
:10012800A2008316031381128111CE28F83083169A
:1001380003138105F728831603130108F8390138DA
:100148008100F728831603130108F8390238810063
:10015800F728831603130108F83903388100F728B4
:10016800831603130108F83904388100F728831629
:1001780003130108F83905388100F728831603139B
:100188000108F83906388100F72807308316031369
:100198008104F728831203132208A000A101210873
:1001A800003A0319DB28013A0319F228F728200836
:1001B800023A03199A28063A03199F280C3A031998
:1001C800A628183A0319AD28303A0319B428603A1A
:1001D8000319BB28C03A0319C228F7282008003A97
:1001E8000319C928F72808000830831203132006CA
:1001F8002104031D002901290529703083160313E2
:100208008F040430831220062104031D0C290D29B4
:100218001329831603130F088F3960388F00831250
:1002280020032104031D19291A29202983160313E1
:100238000F088F3940388F00F43083122006031DD1
:1002480029292103031D29292A2930298316031363
:100258000F088F3930388F00FA30831220062104B6
:10026800031D372938293E29831603130F088F39B0
:1002780020388F007D30831220062104031D452974
:1002880046294C29831603130F088F3910388F001D
:10029800831603130F140800043083120313A000FD
:1002A8000030A1000A128A11F8200A128A11831656
:1002B8000317890188018316031387018312031327
:1002C8008701033083160313860083120313860104
:1002D80083160313880183120313880183160313FB
:1002E80089018312031389018316031381130030D4
:1002F8000A128A11A7210A128A1101300A128A11D8
:10030800A7210A128A118B178B158B160B118030B7
:100318000A128A1192200A128A11B2308312031328
:10032800A0000030A1000A128A11A7220A128A111D
:10033800003083120313A000A1000A128A11392287
:100348000A128A11080083120313A200D329831604
:10035800031316141514F52983160313961495140C
:10036800F5298316031316151515F5298316031396
:1003780096159515F5298316031316101510F529EA
:100388008316031396169516F52983160313161765
:100398001517F5298316031396179517F5292208BB
:1003A800A000A1012108003A0319DB29F52920083A
:1003B800003A0319AB29013A0319B029033A031982
:1003C800B529013A0319BA29073A0319BF29013A8D
:1003D8000319C429033A0319C929013A0319CE2973
:1003E800F52908000A128A1150210A128A110A12E4
:1003F8008A115C220A128A11831203132008A500AD
:100408002508AA002C30A5002508A0002B30A6003E
:100418002608A1002A080A128A1177220A128A11CC
:10042800831203132C08A5002508A9002B08A50092
:100438002508A8002A080706031D232A242A342A87
:100448000615033083120313A7008A30A60055301F
:10045800A500A50B2D2AA60B2D2AA70B2D2AFB29B3
:100468000611FB290A128A11102883160313051492
:10047800831603170814831203139F131F17831679
:1004880003139F121F129F13831203132008A20045
:10049800A20DA20D1F082206C33922069F001F14B1
:1004A800203083120313A200A20B582A0000080070
:1004B800831203139F149F18622A632A5F2A0D3040
:1004C80083120313A300FB30A200A20B692AA30B1B
:1004D800692A831203131E08A200A3012208A000A0
:1004E8002308A100080083120313A4002408A20013
:1004F80004300310A20CFF3E031D7D2A2208A3002E
:100508002008840023088313800024080F39A200E0
:100518002108840022088000080002308A000408AC
:10052800840A82070034BF348634DB34CF34E6349F
:10053800ED34FD348734FF34EF34F734FC34B93408
:10054800DE34F934F13483120313200881000800E3
:08400000FF3FFF3FFF3FFF3FC0
:04400E00D420FF3F7C
:00000001FF
