:060000000A128A110C280F
:10000800FE00030EF3000A08F4000A128A11EA2817
:100018000A128A110F2883010A128A115C290830F2
:1000280075067604031D19281A281E2870308316B1
:1000380003138F04043075067604031D242825282D
:100048002B28831603130F088F3960388F00750328
:100058007604031D302831283728831603130F0828
:100068008F3940388F00F4307506031D3F2876031A
:10007800031D3F2840284628831603130F088F398D
:1000880030388F00FA3075067604031D4C284D2849
:100098005328831603130F088F3920388F007D30BB
:1000A80075067604031D59285A28602883160313F9
:1000B8000F088F3910388F00831603130F140800A8
:1000C800F7008E288316031316141514B028831608
:1000D800031396149514B0288316031316151515D3
:1000E800B0288316031396159515B02883160313A5
:1000F80016101510B0288316031396169516B028F7
:100108008316031316171517B028831603139617AB
:100118009517B0287708F500F6017608003A031914
:100128009628B0287508003A03196628013A031979
:100138006B28033A03197028013A03197528073AFE
:1001480003197A28013A03197F28033A03198428E6
:10015800013A03198928B02808000430F500003056
:10016800F6000A128A1113200A128A11831603173D
:100178008901831603138701831203138701033050
:100188008316031386008312031386018316031351
:100198008801831203138801831603138113003027
:1001A8000A128A1164200A128A1101300A128A116D
:1001B80064200A128A118B178B150030F500F6009F
:1001C8000A128A1122210A128A1108000B1CED2832
:1001D800EE281B290B10831203130618F428F528A0
:1001E80006290130F000700887070330F2008A30D2
:1001F800F1005530F000F00BFF28F10BFF28F20B4F
:10020800FF2806298312031386180B290C291B299A
:10021800013087020330F2008A30F1005530F000D7
:10022800F00B1429F10B1429F20B14291B2974085B
:100238008A00730E8300FE0E7E0E090083160313D8
:100248000514831603170814831203139F131F172B
:10025800831603139F121F129F137508F700F70DDB
:10026800F70D831203131F087706C33977069F001B
:100278001F142130F700F70B3F29080083120313DE
:100288009F149F184829492945290D30F800FB304B
:10029800F700F70B4D29F80B4D2952298312031348
:1002A8001E08F700F8017708F5007808F60008003E
:1002B8000A128A11B1200A128A110A128A114221DD
:1002C8000A128A11750883120313880061290A1219
:0402D8008A110C2853
:08400000FF3FFF3FFF3FFF3FC0
:04400E00D420FF3F7C
:00000001FF
