:060000000A128A110C280F
:10000800FE00030EF1000A08F2000A128A111129F3
:100018000A128A110F28F701F801F90183010A125F
:100028008A119728083073067404031D1C281D289C
:1000380021287030831603138F0404307306740468
:10004800031D272828282E28831603130F088F3905
:1000580060388F0073037404031D332834283A284A
:10006800831603130F088F3940388F00F430730656
:10007800031D42287403031D422843284928831678
:1000880003130F088F3930388F00FA307306740461
:10009800031D4F2850285628831603130F088F393D
:1000A80020388F007D3073067404031D5C285D289A
:1000B8006328831603130F088F3910388F008316AF
:1000C80003130F1408000430F3000030F4000A1280
:1000D8008A1116200A128A118316031788018901CA
:1000E800831603138601880183120313860188018E
:1000F8000030F300F4000A128A11C0200A128A1193
:100108008B170B17831203138C11831603138C158B
:100118008516F301F401F50124300A128A11FB2037
:100128000A128A1108000A128A1167200A128A1113
:100138000A128A11E1200A128A117408F800730859
:10014800F7000A128A11E1200A128A117308831231
:1001580003138600023083120313A2004530A10066
:10016800A930A000A00BB628A10BB628A20BB62870
:100178009C280A128A110C28831603130514831667
:1001880003170814831203139F131F1783160313EF
:100198009F121F129F137308F500F50DF50D8312BA
:1001A80003131F087506C33975069F001F144230D4
:1001B800F500F50BDD2800000800831203139F14D7
:1001C8009F18E728E828E4281A30F600F830F500E8
:1001D800F50BEC28F60BEC280000831203131E081D
:1001E800F500F6017508F3007608F4000800F6003B
:1001F800831603138712761D022903290729750818
:10020800940087150B2973087504940087117608E4
:1002180074048312031394000800831203138C1DC3
:1002280016291729202977080A128A1127210A1264
:100238008A11831203138C1172088A00710E8300CD
:10024800FE0E7E0E0900F00070088312031393005F
:0202580008009C
:08400000FF3FFF3FFF3FFF3FC0
:04400E00D620FF3F7A
:00000001FF
